{
  "contractName": "VotingPoll",
  "abi": [
    {
      "constant": true,
      "inputs": [
        {
          "name": "",
          "type": "uint256"
        }
      ],
      "name": "proposals",
      "outputs": [
        {
          "name": "name",
          "type": "string"
        },
        {
          "name": "description",
          "type": "string"
        },
        {
          "name": "author",
          "type": "address"
        },
        {
          "name": "activated",
          "type": "bool"
        },
        {
          "name": "pollId",
          "type": "uint256"
        }
      ],
      "payable": false,
      "stateMutability": "view",
      "type": "function"
    },
    {
      "constant": true,
      "inputs": [
        {
          "name": "",
          "type": "uint256"
        }
      ],
      "name": "polls",
      "outputs": [
        {
          "name": "name",
          "type": "string"
        },
        {
          "name": "description",
          "type": "string"
        },
        {
          "name": "author",
          "type": "address"
        },
        {
          "name": "allowProposalUpdate",
          "type": "bool"
        },
        {
          "name": "standardPoll",
          "type": "bool"
        },
        {
          "name": "startDate",
          "type": "uint256"
        },
        {
          "name": "endDate",
          "type": "uint256"
        },
        {
          "name": "votingChoice",
          "type": "uint8"
        }
      ],
      "payable": false,
      "stateMutability": "view",
      "type": "function"
    },
    {
      "anonymous": false,
      "inputs": [
        {
          "indexed": true,
          "name": "proposalId",
          "type": "uint256"
        },
        {
          "indexed": true,
          "name": "proposalAuthor",
          "type": "address"
        },
        {
          "indexed": true,
          "name": "pollId",
          "type": "uint256"
        }
      ],
      "name": "LogCreateProposal",
      "type": "event"
    },
    {
      "anonymous": false,
      "inputs": [
        {
          "indexed": true,
          "name": "pollId",
          "type": "uint256"
        },
        {
          "indexed": true,
          "name": "pollAuthor",
          "type": "address"
        }
      ],
      "name": "LogCreatePoll",
      "type": "event"
    },
    {
      "anonymous": false,
      "inputs": [
        {
          "indexed": true,
          "name": "pollId",
          "type": "uint256"
        },
        {
          "indexed": true,
          "name": "proposalId",
          "type": "uint256"
        },
        {
          "indexed": true,
          "name": "proposalAuthor",
          "type": "address"
        }
      ],
      "name": "LogProposalActivated",
      "type": "event"
    },
    {
      "constant": false,
      "inputs": [
        {
          "name": "_name",
          "type": "string"
        },
        {
          "name": "_description",
          "type": "string"
        },
        {
          "name": "_startDate",
          "type": "uint256"
        },
        {
          "name": "_endDate",
          "type": "uint256"
        },
        {
          "name": "_votingChoice",
          "type": "uint8"
        },
        {
          "name": "_standardPoll",
          "type": "bool"
        }
      ],
      "name": "createPoll",
      "outputs": [],
      "payable": false,
      "stateMutability": "nonpayable",
      "type": "function"
    },
    {
      "constant": false,
      "inputs": [
        {
          "name": "_proposalName",
          "type": "string"
        },
        {
          "name": "_proposalDescription",
          "type": "string"
        },
        {
          "name": "_pollId",
          "type": "uint256"
        }
      ],
      "name": "createProposal",
      "outputs": [],
      "payable": false,
      "stateMutability": "nonpayable",
      "type": "function"
    },
    {
      "constant": false,
      "inputs": [
        {
          "name": "_proposalId",
          "type": "uint256"
        },
        {
          "name": "_pollId",
          "type": "uint256"
        }
      ],
      "name": "activateProposal",
      "outputs": [],
      "payable": false,
      "stateMutability": "nonpayable",
      "type": "function"
    },
    {
      "constant": true,
      "inputs": [
        {
          "name": "_pollId",
          "type": "uint256"
        }
      ],
      "name": "getPoll",
      "outputs": [
        {
          "components": [
            {
              "name": "name",
              "type": "string"
            },
            {
              "name": "description",
              "type": "string"
            },
            {
              "name": "proposalIds",
              "type": "uint256[]"
            },
            {
              "name": "author",
              "type": "address"
            },
            {
              "name": "allowProposalUpdate",
              "type": "bool"
            },
            {
              "name": "standardPoll",
              "type": "bool"
            },
            {
              "name": "startDate",
              "type": "uint256"
            },
            {
              "name": "endDate",
              "type": "uint256"
            },
            {
              "name": "votingChoice",
              "type": "uint8"
            }
          ],
          "name": "",
          "type": "tuple"
        }
      ],
      "payable": false,
      "stateMutability": "view",
      "type": "function"
    },
    {
      "constant": true,
      "inputs": [],
      "name": "getPollAmount",
      "outputs": [
        {
          "name": "",
          "type": "uint256"
        }
      ],
      "payable": false,
      "stateMutability": "view",
      "type": "function"
    },
    {
      "constant": true,
      "inputs": [
        {
          "name": "_proposalId",
          "type": "uint256"
        }
      ],
      "name": "getProposal",
      "outputs": [
        {
          "name": "name",
          "type": "string"
        },
        {
          "name": "descripton",
          "type": "string"
        },
        {
          "name": "author",
          "type": "address"
        },
        {
          "name": "pollId",
          "type": "uint256"
        },
        {
          "name": "activated",
          "type": "bool"
        }
      ],
      "payable": false,
      "stateMutability": "view",
      "type": "function"
    },
    {
      "constant": true,
      "inputs": [
        {
          "name": "_pollId",
          "type": "uint256"
        }
      ],
      "name": "getProposalsFromPoll",
      "outputs": [
        {
          "name": "",
          "type": "uint256[]"
        }
      ],
      "payable": false,
      "stateMutability": "view",
      "type": "function"
    }
  ],
  "bytecode": "0x608060405234801561001057600080fd5b50612349806100206000396000f3fe608060405234801561001057600080fd5b50600436106100b0576000357c010000000000000000000000000000000000000000000000000000000090048063ac2f007411610083578063ac2f007414610151578063c3ce450014610188578063c48b7cb8146101b8578063c7f758a8146101d6578063ee8089f21461020a576100b0565b8063013cf08b146100b55780630ce0ebf4146100e95780631a8cbcaa14610105578063396a472614610135575b600080fd5b6100cf60048036036100ca9190810190611960565b610226565b6040516100e0959493929190612002565b60405180910390f35b61010360048036036100fe9190810190611814565b6103c6565b005b61011f600480360361011a9190810190611960565b610665565b60405161012c9190612123565b60405180910390f35b61014f600480360361014a919081019061189d565b610904565b005b61016b60048036036101669190810190611960565b610ccf565b60405161017f989796959493929190611f76565b60405180910390f35b6101a2600480360361019d9190810190611960565b610e9b565b6040516101af9190611ef3565b60405180910390f35b6101c0610f11565b6040516101cd9190612145565b60405180910390f35b6101f060048036036101eb9190810190611960565b610f1d565b604051610201959493929190611f15565b60405180910390f35b610224600480360361021f9190810190611989565b611136565b005b6001818154811061023357fe5b9060005260206000209060040201600091509050806000018054600181600116156101000203166002900480601f0160208091040260200160405190810160405280929190818152602001828054600181600116156101000203166002900480156102df5780601f106102b4576101008083540402835291602001916102df565b820191906000526020600020905b8154815290600101906020018083116102c257829003601f168201915b505050505090806001018054600181600116156101000203166002900480601f01602080910402602001604051908101604052809291908181526020018280546001816001161561010002031660029004801561037d5780601f106103525761010080835404028352916020019161037d565b820191906000526020600020905b81548152906001019060200180831161036057829003601f168201915b5050505050908060020160009054906101000a900473ffffffffffffffffffffffffffffffffffffffff16908060020160149054906101000a900460ff16908060030154905085565b8042600082815481106103d557fe5b9060005260206000209060070201600501541180610410575060008082815481106103fc57fe5b906000526020600020906007020160050154145b61044f576040517f08c379a000000000000000000000000000000000000000000000000000000000815260040161044690612063565b60405180910390fd5b6000828154811061045c57fe5b906000526020600020906007020160030160159054906101000a900460ff16156104bb576040517f08c379a00000000000000000000000000000000000000000000000000000000081526004016104b2906120a3565b60405180910390fd5b3373ffffffffffffffffffffffffffffffffffffffff16600083815481106104df57fe5b906000526020600020906007020160030160009054906101000a900473ffffffffffffffffffffffffffffffffffffffff1673ffffffffffffffffffffffffffffffffffffffff1614156105c7576105c286868080601f016020809104026020016040519081016040528093929190818152602001838380828437600081840152601f19601f8201169050808301925050505050505085858080601f016020809104026020016040519081016040528093929190818152602001838380828437600081840152601f19601f820116905080830192505050505050508460016113f7565b61065d565b61065c86868080601f016020809104026020016040519081016040528093929190818152602001838380828437600081840152601f19601f8201169050808301925050505050505085858080601f016020809104026020016040519081016040528093929190818152602001838380828437600081840152601f19601f820116905080830192505050505050508460006113f7565b5b505050505050565b61066d6115e1565b6000828154811061067a57fe5b906000526020600020906007020160405180610120016040529081600082018054600181600116156101000203166002900480601f01602080910402602001604051908101604052809291908181526020018280546001816001161561010002031660029004801561072d5780601f106107025761010080835404028352916020019161072d565b820191906000526020600020905b81548152906001019060200180831161071057829003601f168201915b50505050508152602001600182018054600181600116156101000203166002900480601f0160208091040260200160405190810160405280929190818152602001828054600181600116156101000203166002900480156107cf5780601f106107a4576101008083540402835291602001916107cf565b820191906000526020600020905b8154815290600101906020018083116107b257829003601f168201915b505050505081526020016002820180548060200260200160405190810160405280929190818152602001828054801561082757602002820191906000526020600020905b815481526020019060010190808311610813575b505050505081526020016003820160009054906101000a900473ffffffffffffffffffffffffffffffffffffffff1673ffffffffffffffffffffffffffffffffffffffff1673ffffffffffffffffffffffffffffffffffffffff1681526020016003820160149054906101000a900460ff161515151581526020016003820160159054906101000a900460ff1615151515815260200160048201548152602001600582015481526020016006820160009054906101000a900460ff1660028111156108ee57fe5b60028111156108f957fe5b815250509050919050565b600083148061091257508383115b610951576040517f08c379a0000000000000000000000000000000000000000000000000000000008152600401610948906120c3565b60405180910390fd5b6109596115e1565b88888080601f016020809104026020016040519081016040528093929190818152602001838380828437600081840152601f19601f82011690508083019250505050505050816000018190525086868080601f016020809104026020016040519081016040528093929190818152602001838380828437600081840152601f19601f82011690508083019250505050505050816020018190525033816060019073ffffffffffffffffffffffffffffffffffffffff16908173ffffffffffffffffffffffffffffffffffffffff1681525050848160c0018181525050838160e0018181525050828161010001906002811115610a5157fe5b90816002811115610a5e57fe5b81525050818160a0019015159081151581525050600081908060018154018082558091505090600182039060005260206000209060070201600090919290919091506000820151816000019080519060200190610abc929190611652565b506020820151816001019080519060200190610ad9929190611652565b506040820151816002019080519060200190610af69291906116d2565b5060608201518160030160006101000a81548173ffffffffffffffffffffffffffffffffffffffff021916908373ffffffffffffffffffffffffffffffffffffffff16021790555060808201518160030160146101000a81548160ff02191690831515021790555060a08201518160030160156101000a81548160ff02191690831515021790555060c0820151816004015560e082015181600501556101008201518160060160006101000a81548160ff02191690836002811115610bb757fe5b02179055505050508115610c7857610c1e6040518060400160405280600381526020017f59657300000000000000000000000000000000000000000000000000000000008152506040518060200160405280600081525060016000805490500360016113f7565b610c776040518060400160405280600281526020017f4e6f0000000000000000000000000000000000000000000000000000000000008152506040518060200160405280600081525060016000805490500360016113f7565b5b3373ffffffffffffffffffffffffffffffffffffffff166001600080549050037fbcda48e65a4590ccd9d6f76776d16b5cd2d8744b77b2b9845d3f003b5e87495660405160405180910390a3505050505050505050565b60008181548110610cdc57fe5b9060005260206000209060070201600091509050806000018054600181600116156101000203166002900480601f016020809104026020016040519081016040528092919081815260200182805460018160011615610100020316600290048015610d885780601f10610d5d57610100808354040283529160200191610d88565b820191906000526020600020905b815481529060010190602001808311610d6b57829003601f168201915b505050505090806001018054600181600116156101000203166002900480601f016020809104026020016040519081016040528092919081815260200182805460018160011615610100020316600290048015610e265780601f10610dfb57610100808354040283529160200191610e26565b820191906000526020600020905b815481529060010190602001808311610e0957829003601f168201915b5050505050908060030160009054906101000a900473ffffffffffffffffffffffffffffffffffffffff16908060030160149054906101000a900460ff16908060030160159054906101000a900460ff16908060040154908060050154908060060160009054906101000a900460ff16905088565b606060008281548110610eaa57fe5b9060005260206000209060070201600201805480602002602001604051908101604052809291908181526020018280548015610f0557602002820191906000526020600020905b815481526020019060010190808311610ef1575b50505050509050919050565b60008080549050905090565b606080600080600060018681548110610f3257fe5b906000526020600020906004020160000160018781548110610f5057fe5b906000526020600020906004020160010160018881548110610f6e57fe5b906000526020600020906004020160020160009054906101000a900473ffffffffffffffffffffffffffffffffffffffff1660018981548110610fad57fe5b90600052602060002090600402016003015460018a81548110610fcc57fe5b906000526020600020906004020160020160149054906101000a900460ff16848054600181600116156101000203166002900480601f0160208091040260200160405190810160405280929190818152602001828054600181600116156101000203166002900480156110805780601f1061105557610100808354040283529160200191611080565b820191906000526020600020905b81548152906001019060200180831161106357829003601f168201915b50505050509450838054600181600116156101000203166002900480601f01602080910402602001604051908101604052809291908181526020018280546001816001161561010002031660029004801561111c5780601f106110f15761010080835404028352916020019161111c565b820191906000526020600020905b8154815290600101906020018083116110ff57829003601f168201915b505050505093509450945094509450945091939590929450565b806000818154811061114457fe5b906000526020600020906007020160030160009054906101000a900473ffffffffffffffffffffffffffffffffffffffff1673ffffffffffffffffffffffffffffffffffffffff163373ffffffffffffffffffffffffffffffffffffffff16146111e3576040517f08c379a00000000000000000000000000000000000000000000000000000000081526004016111da90612083565b60405180910390fd5b8142600082815481106111f257fe5b906000526020600020906007020160050154118061122d5750600080828154811061121957fe5b906000526020600020906007020160050154145b61126c576040517f08c379a000000000000000000000000000000000000000000000000000000000815260040161126390612063565b60405180910390fd5b826001858154811061127a57fe5b906000526020600020906004020160030154146112cc576040517f08c379a00000000000000000000000000000000000000000000000000000000081526004016112c390612103565b60405180910390fd5b600184815481106112d957fe5b906000526020600020906004020160020160149054906101000a900460ff1615611338576040517f08c379a000000000000000000000000000000000000000000000000000000000815260040161132f906120e3565b60405180910390fd5b600180858154811061134657fe5b906000526020600020906004020160020160146101000a81548160ff0219169083151502179055506001848154811061137b57fe5b906000526020600020906004020160020160009054906101000a900473ffffffffffffffffffffffffffffffffffffffff1673ffffffffffffffffffffffffffffffffffffffff1684847f132e056177590ff267bcd6df5f53a338c61ba1e2e3ffd57fbe3ecd75957e503260405160405180910390a450505050565b6113ff61171f565b84816000018190525083816020018190525033816040019073ffffffffffffffffffffffffffffffffffffffff16908173ffffffffffffffffffffffffffffffffffffffff168152505082816080018181525050818160600190151590811515815250506001819080600181540180825580915050906001820390600052602060002090600402016000909192909190915060008201518160000190805190602001906114ad929190611652565b5060208201518160010190805190602001906114ca929190611652565b5060408201518160020160006101000a81548173ffffffffffffffffffffffffffffffffffffffff021916908373ffffffffffffffffffffffffffffffffffffffff16021790555060608201518160020160146101000a81548160ff021916908315150217905550608082015181600301555050506000838154811061154c57fe5b906000526020600020906007020160020160018080549050039080600181540180825580915050906001820390600052602060002001600090919290919091505550823373ffffffffffffffffffffffffffffffffffffffff1660018080549050037f9d66b6d7ef9c76ac504e7dcbd3c9ab77b2e417b1ef03fb232a3f71de28168a0d60405160405180910390a45050505050565b604051806101200160405280606081526020016060815260200160608152602001600073ffffffffffffffffffffffffffffffffffffffff16815260200160001515815260200160001515815260200160008152602001600081526020016000600281111561164c57fe5b81525090565b828054600181600116156101000203166002900490600052602060002090601f016020900481019282601f1061169357805160ff19168380011785556116c1565b828001600101855582156116c1579182015b828111156116c05782518255916020019190600101906116a5565b5b5090506116ce9190611766565b5090565b82805482825590600052602060002090810192821561170e579160200282015b8281111561170d5782518255916020019190600101906116f2565b5b50905061171b9190611766565b5090565b6040518060a001604052806060815260200160608152602001600073ffffffffffffffffffffffffffffffffffffffff168152602001600015158152602001600081525090565b61178891905b8082111561178457600081600090555060010161176c565b5090565b90565b60008135905061179a816122c8565b92915050565b6000813590506117af816122df565b92915050565b60008083601f8401126117c757600080fd5b8235905067ffffffffffffffff8111156117e057600080fd5b6020830191508360018202830111156117f857600080fd5b9250929050565b60008135905061180e816122ef565b92915050565b60008060008060006060868803121561182c57600080fd5b600086013567ffffffffffffffff81111561184657600080fd5b611852888289016117b5565b9550955050602086013567ffffffffffffffff81111561187157600080fd5b61187d888289016117b5565b93509350506040611890888289016117ff565b9150509295509295909350565b60008060008060008060008060c0898b0312156118b957600080fd5b600089013567ffffffffffffffff8111156118d357600080fd5b6118df8b828c016117b5565b9850985050602089013567ffffffffffffffff8111156118fe57600080fd5b61190a8b828c016117b5565b9650965050604061191d8b828c016117ff565b945050606061192e8b828c016117ff565b935050608061193f8b828c016117a0565b92505060a06119508b828c0161178b565b9150509295985092959890939650565b60006020828403121561197257600080fd5b6000611980848285016117ff565b91505092915050565b6000806040838503121561199c57600080fd5b60006119aa858286016117ff565b92505060206119bb858286016117ff565b9150509250929050565b60006119d18383611ed5565b60208301905092915050565b6119e68161220a565b82525050565b6119f58161220a565b82525050565b6000611a068261218b565b611a1081856121d7565b9350611a1b83612170565b8060005b83811015611a4c578151611a3388826119c5565b9750611a3e836121b9565b925050600181019050611a1f565b5085935050505092915050565b6000611a6482612180565b611a6e81856121c6565b9350611a7983612160565b8060005b83811015611aaa578151611a9188826119c5565b9750611a9c836121ac565b925050600181019050611a7d565b5085935050505092915050565b611ac08161221c565b82525050565b611acf8161221c565b82525050565b611ade81612265565b82525050565b611aed81612265565b82525050565b6000611afe826121a1565b611b0881856121f9565b9350611b18818560208601612277565b611b21816122aa565b840191505092915050565b6000611b3782612196565b611b4181856121e8565b9350611b51818560208601612277565b611b5a816122aa565b840191505092915050565b6000611b7082612196565b611b7a81856121f9565b9350611b8a818560208601612277565b611b93816122aa565b840191505092915050565b6000611bab6027836121f9565b91507f4572726f723a205468697320706f6c6c206973206e6f7420616374697665206160008301527f6e796d6f726521000000000000000000000000000000000000000000000000006020830152604082019050919050565b6000611c116022836121f9565b91507f4572726f723a20596f7520617265206e6f742074686520706f6c6c206f776e6560008301527f72210000000000000000000000000000000000000000000000000000000000006020830152604082019050919050565b6000611c776033836121f9565b91507f4572726f723a20596f752063616e206e6f74206164642070726f706f73616c7360008301527f20746f207374616e6461726420706f6c6c7321000000000000000000000000006020830152604082019050919050565b6000611cdd6034836121f9565b91507f4572726f723a2054686520656e6464617465206d757374206265206c6172676560008301527f72207468656e20746865207374617274646174650000000000000000000000006020830152604082019050919050565b6000611d436025836121f9565b91507f4572726f723a2050726f706f73616c20697320616c726561647920616374697660008301527f61746564210000000000000000000000000000000000000000000000000000006020830152604082019050919050565b6000611da9602e836121f9565b91507f4572726f723a20546869732070726f706f73616c206973206e6f74207061727460008301527f206f66207468617420706f6c6c210000000000000000000000000000000000006020830152604082019050919050565b6000610120830160008301518482036000860152611e208282611b2c565b91505060208301518482036020860152611e3a8282611b2c565b91505060408301518482036040860152611e548282611a59565b9150506060830151611e6960608601826119dd565b506080830151611e7c6080860182611ab7565b5060a0830151611e8f60a0860182611ab7565b5060c0830151611ea260c0860182611ed5565b5060e0830151611eb560e0860182611ed5565b50610100830151611eca610100860182611ad5565b508091505092915050565b611ede8161225b565b82525050565b611eed8161225b565b82525050565b60006020820190508181036000830152611f0d81846119fb565b905092915050565b600060a0820190508181036000830152611f2f8188611af3565b90508181036020830152611f438187611af3565b9050611f5260408301866119ec565b611f5f6060830185611ee4565b611f6c6080830184611ac6565b9695505050505050565b6000610100820190508181036000830152611f91818b611b65565b90508181036020830152611fa5818a611b65565b9050611fb460408301896119ec565b611fc16060830188611ac6565b611fce6080830187611ac6565b611fdb60a0830186611ee4565b611fe860c0830185611ee4565b611ff560e0830184611ae4565b9998505050505050505050565b600060a082019050818103600083015261201c8188611b65565b905081810360208301526120308187611b65565b905061203f60408301866119ec565b61204c6060830185611ac6565b6120596080830184611ee4565b9695505050505050565b6000602082019050818103600083015261207c81611b9e565b9050919050565b6000602082019050818103600083015261209c81611c04565b9050919050565b600060208201905081810360008301526120bc81611c6a565b9050919050565b600060208201905081810360008301526120dc81611cd0565b9050919050565b600060208201905081810360008301526120fc81611d36565b9050919050565b6000602082019050818103600083015261211c81611d9c565b9050919050565b6000602082019050818103600083015261213d8184611e02565b905092915050565b600060208201905061215a6000830184611ee4565b92915050565b6000819050602082019050919050565b6000819050602082019050919050565b600081519050919050565b600081519050919050565b600081519050919050565b600081519050919050565b6000602082019050919050565b6000602082019050919050565b600082825260208201905092915050565b600082825260208201905092915050565b600082825260208201905092915050565b600082825260208201905092915050565b60006122158261223b565b9050919050565b60008115159050919050565b6000819050612236826122bb565b919050565b600073ffffffffffffffffffffffffffffffffffffffff82169050919050565b6000819050919050565b600061227082612228565b9050919050565b60005b8381101561229557808201518184015260208101905061227a565b838111156122a4576000848401525b50505050565b6000601f19601f8301169050919050565b600381106122c557fe5b50565b6122d18161221c565b81146122dc57600080fd5b50565b600381106122ec57600080fd5b50565b6122f88161225b565b811461230357600080fd5b5056fea365627a7a72305820e381bd691520ef10ac35298a8a49de45ac5a04bd8c4802664bb22fcccf4a3ae06c6578706572696d656e74616cf564736f6c634300050a0040",
  "source": "pragma solidity 0.5.10;\npragma experimental ABIEncoderV2;\n\n///@dev the polls could be spamed with proposals to reduce iteration speed\n\ncontract VotingPoll {\n\n    struct Poll {\n        string name;\n        string description;\n        uint[] proposalIds;\n        address author;\n        bool allowProposalUpdate;\n        bool standardPoll;\n        uint startDate;\n        uint endDate; ///@dev if 0 then open end\n        VotingChoice votingChoice;\n    }\n\n    struct Proposal {\n        string name;\n        string description;\n        address author;\n        bool activated;\n        uint pollId;\n    }\n\n    enum VotingChoice {useNewestVote, useOldestVote, nullifyAllOnDoubleVote}\n\n    ///@notice contains all polls\n    Poll[] public polls;\n\n    ///@notice contains all proposals\n    Proposal[] public proposals;\n\n    event LogCreateProposal(uint indexed proposalId, address indexed proposalAuthor, uint indexed pollId);\n\n    event LogCreatePoll(uint indexed pollId, address indexed pollAuthor);\n\n    event LogProposalActivated(uint indexed pollId, uint indexed proposalId, address indexed proposalAuthor);\n\n    ///@notice creates a Poll\n    ///@param _name name of the poll\n    ///@param _description a subtle description of the poll\n    ///@param _startDate the start date of the proposal\n    ///@param _endDate the end date of the proposal (0 for no end date)\n    ///@param _votingChoice how double votes should be counted\n    ///@param _standardPoll if true, yes and no proposal will be created and further proposal creation prohibited\n    function createPoll(\n        string calldata _name,\n        string calldata _description,\n        uint _startDate,\n        uint _endDate,\n        VotingChoice _votingChoice,\n        bool _standardPoll\n    ) external {\n        require(_endDate == 0 || _endDate > _startDate, \"Error: The enddate must be larger then the startdate\");\n        Poll memory newPoll;\n        newPoll.name = _name;\n        newPoll.description = _description;\n        newPoll.author = msg.sender;\n        newPoll.startDate = _startDate;\n        newPoll.endDate = _endDate;\n        newPoll.votingChoice = _votingChoice;\n        newPoll.standardPoll = _standardPoll;\n        polls.push(newPoll);\n\n        if(_standardPoll){\n            createProposalInternal(\"Yes\", \"\", polls.length - 1, true);\n            createProposalInternal(\"No\", \"\", polls.length - 1, true);\n        }\n\n        emit LogCreatePoll(polls.length - 1, msg.sender);\n    }\n\n    ///@notice creates a proposal and saves it seperated in an array\n    ///@param _proposalName the name of the proposal\n    ///@param _proposalDescription the high level description of the proposal\n    ///@param _pollId the id of the proposal which it is part of\n    function createProposal(\n        string calldata _proposalName,\n        string calldata _proposalDescription,\n        uint _pollId\n    )\n        external\n        isStillActive(_pollId)\n    {\n        require(!polls[_pollId].standardPoll, \"Error: You can not add proposals to standard polls!\");\n        if(polls[_pollId].author == msg.sender)\n            createProposalInternal(_proposalName,  _proposalDescription, _pollId, true);\n        else\n            createProposalInternal(_proposalName,  _proposalDescription, _pollId, false);\n    }\n\n    ///@notice creates a proposal and saves it seperated in a map\n    ///@param _proposalName the name of the proposal\n    ///@param _proposalDescription The high level description of the proposal\n    ///@param _pollId the id of the proposal which it is part of\n    ///@param _activated true if created by poll author, else its false and needs to be activated by poll author\n    function createProposalInternal(\n        string memory _proposalName,\n        string memory _proposalDescription,\n        uint _pollId,\n        bool _activated\n    ) internal {\n\n        Proposal memory newProposal;\n        newProposal.name = _proposalName;\n        newProposal.description = _proposalDescription;\n        newProposal.author = msg.sender;\n        newProposal.pollId = _pollId;\n        newProposal.activated = _activated;\n        proposals.push(newProposal);\n        polls[_pollId].proposalIds.push(proposals.length - 1);\n        emit LogCreateProposal(proposals.length - 1, msg.sender, _pollId);\n    }\n\n    ///@notice activates an already created proposal\n    ///@param _proposalId the proposalId to activate\n    ///@param _pollId the id of the proposal\n    function activateProposal(\n        uint _proposalId,\n        uint _pollId\n    )\n        external\n        onlyPollAuthor(_pollId)\n        isStillActive(_pollId)\n    {\n        require(proposals[_proposalId].pollId == _pollId, \"Error: This proposal is not part of that poll!\");\n        require(!proposals[_proposalId].activated, \"Error: Proposal is already activated!\");\n        proposals[_proposalId].activated = true;\n\n        emit LogProposalActivated(_pollId, _proposalId, proposals[_proposalId].author);\n    }\n\n    ///@notice returns a poll with the given id\n    ///@param _pollId the id of the poll requested\n    ///@return poll\n    function getPoll(uint _pollId) external view returns(Poll memory) {\n        return polls[_pollId];\n    }\n\n    ///@notice returns the amount of polls stored in this contract\n    ///@return returns the amount of polls stored in this contract\n    function getPollAmount() external view returns(uint) {\n        return polls.length;\n    }\n\n    ///@notice return all values from proposal\n    ///@param _proposalId the Id of the searched proposal\n    ///@return the proposal with the given id as single values\n    function getProposal(\n        uint _proposalId\n    )\n        external\n        view\n        returns(\n            string memory name,\n            string memory descripton,\n            address author,\n            uint pollId,\n            bool activated\n        )\n    {\n        return (proposals[_proposalId].name, proposals[_proposalId].description, proposals[_proposalId].author, proposals[_proposalId].pollId, proposals[_proposalId].activated);\n    }\n\n    ///@notice returns an array with the proposal ids for a specific poll\n    ///@param _pollId the id of the poll that is to be searched\n    ///@return array with proposal ids\n    function getProposalsFromPoll(uint _pollId) external view returns (uint[] memory) {\n        return polls[_pollId].proposalIds;\n    }\n\n    modifier onlyPollAuthor(uint pollId) {\n        require(msg.sender == polls[pollId].author, \"Error: You are not the poll owner!\");\n        _;\n    }\n\n    modifier onlyProposalAuthor(uint proposalId) {\n        require(msg.sender == proposals[proposalId].author, \"Error: You are not the proposal owner!\");\n        _;\n    }\n\n    modifier isStillActive(uint _pollId) {\n        require(polls[_pollId].endDate > block.timestamp || polls[_pollId].endDate == 0, \"Error: This poll is not active anymore!\");\n        _;\n    }\n}",
  "sourcePath": "/Users/jbentke/Documents/VotingTool/voting-contracts/contracts/VotingPoll.sol",
  "compiler": {
    "name": "solc",
    "version": "0.5.10+commit.5a6ea5b1.Emscripten.clang"
  },
  "schemaVersion": "3.0.6",
  "updatedAt": "2019-08-20T11:53:24.860Z",
  "devdoc": {
    "details": "the polls could be spamed with proposals to reduce iteration speed",
    "methods": {
      "activateProposal(uint256,uint256)": {
        "params": {
          "_pollId": "the id of the proposal",
          "_proposalId": "the proposalId to activate"
        }
      },
      "createPoll(string,string,uint256,uint256,uint8,bool)": {
        "params": {
          "_description": "a subtle description of the poll",
          "_endDate": "the end date of the proposal (0 for no end date)",
          "_name": "name of the poll",
          "_standardPoll": "if true, yes and no proposal will be created and further proposal creation prohibited",
          "_startDate": "the start date of the proposal",
          "_votingChoice": "how double votes should be counted"
        }
      },
      "createProposal(string,string,uint256)": {
        "params": {
          "_pollId": "the id of the proposal which it is part of",
          "_proposalDescription": "the high level description of the proposal",
          "_proposalName": "the name of the proposal"
        }
      },
      "getPoll(uint256)": {
        "params": {
          "_pollId": "the id of the poll requested"
        },
        "return": "poll"
      },
      "getPollAmount()": {
        "return": "returns the amount of polls stored in this contract"
      },
      "getProposal(uint256)": {
        "params": {
          "_proposalId": "the Id of the searched proposal"
        },
        "return": "the proposal with the given id as single values"
      },
      "getProposalsFromPoll(uint256)": {
        "params": {
          "_pollId": "the id of the poll that is to be searched"
        },
        "return": "array with proposal ids"
      }
    }
  },
  "userdoc": {
    "methods": {
      "activateProposal(uint256,uint256)": {
        "notice": "activates an already created proposal"
      },
      "createPoll(string,string,uint256,uint256,uint8,bool)": {
        "notice": "creates a Poll"
      },
      "createProposal(string,string,uint256)": {
        "notice": "creates a proposal and saves it seperated in an array"
      },
      "getPoll(uint256)": {
        "notice": "returns a poll with the given id"
      },
      "getPollAmount()": {
        "notice": "returns the amount of polls stored in this contract"
      },
      "getProposal(uint256)": {
        "notice": "return all values from proposal"
      },
      "getProposalsFromPoll(uint256)": {
        "notice": "returns an array with the proposal ids for a specific poll"
      }
    }
  }
}